:020000040800F2
:100000007807002089010008AB1B0008EF150008E5
:10001000A91B00088B0200084F1D0008000000000B
:10002000000000000000000000000000E91C0008C3
:10003000CD02000800000000AD1B0008EB1C00080A
:10004000A3010008A3010008A3010008A301000800
:10005000A3010008A3010008A3010008A3010008F0
:10006000A3010008A3010008A3010008A3010008E0
:10007000A3010008A3010008A3010008A3010008D0
:10008000A3010008A3010008A3010008A3010008C0
:10009000A3010008A3010008A3010008A3010008B0
:1000A000A3010008A3010008A3010008A3010008A0
:1000B000A3010008A3010008A3010008A301000890
:1000C000A3010008A3010008A3010008A301000880
:1000D000A3010008A3010008A3010008A301000870
:1000E000A3010008A3010008A301000800F002F822
:1000F00000F03AF80AA090E8000C82448344AAF188
:100100000107DA4501D100F02FF8AFF2090EBAE885
:100110000F0013F0010F18BFFB1A43F0010318473B
:100120006420000084200000103A24BF78C878C101
:10013000FAD8520724BF30C830C144BF04680C60ED
:10014000704700000023002400250026103A28BF35
:1001500078C1FBD8520728BF30C148BF0B60704739
:100160001FB51FBD10B510BD00F058F81146FFF7C0
:10017000F7FF01F0FDFD00F076F803B4FFF7F2FFA2
:1001800003BC00F07BF8000009488047094800479D
:10019000FEE7FEE7FEE7FEE7FEE7FEE7FEE7FEE737
:1001A000FEE7FEE704480549054A064B7047000094
:1001B0004D1D0008ED0000087801002078070020A0
:1001C00078030020780300204FF0000200B51346AA
:1001D00094469646203922BFA0E80C50A0E80C5067
:1001E000B1F12001BFF4F7AF090728BFA0E80C5018
:1001F00048BF0CC05DF804EB890028BF40F8042B11
:1002000008BF704748BF20F8022B11F0804F18BF7D
:1002100000F8012B7047704770477047754600F033
:1002200029F8AE4605006946534620F0070085468A
:1002300018B020B5FFF7B6FFBDE820404FF000062C
:100240004FF000074FF000084FF0000B21F00701BE
:10025000AC46ACE8C009ACE8C009ACE8C009ACE801
:10026000C0098D4670470446AFF300802046FFF773
:1002700084FF000000487047140100200149182045
:10028000ABBEFEE7260002007047FEE70022022117
:10029000014800F02BB900000008014001220221B2
:1002A000014800F023B900000008014000220421A9
:1002B000014800F01BB900000008014001220421A0
:1002C000014800F013B90000000801407047000029
:1002D00070B5044600F010F90546601C02D00448D1
:1002E0000078044400F008F9401BA042FAD370BD26
:1002F000380000202DE9F04FDFF8C0910024A9F16B
:10030000040B23460F2709F1040AABF1040ECDE0DC
:100310000125A5402A40AA427AD1694ED1F804C0ED
:10032000ACEB0608B44532D014DCBCF1030F3AD074
:1003300009DCBCF1000F2AD0BCF1010F1CD0BCF1CC
:10034000020F31D11DE0BCF1110F17D0BCF1120F1B
:100350002AD119E0B8F5881F19D006DCB8F5803F1E
:1003600015D0B8F5801F1FD111E0B8F5001F0ED0D1
:10037000B8F5041F18D10AE0CB6815E0CB681B1D47
:1003800012E0CB6808330FE0CB680C330CE08B68CD
:100390002BB1012B4FF0080303D0456104E0042387
:1003A00002E0056100E00023FF2A01D8064601E0D3
:1003B00000F104064FEA840501D9A5F12005D6F81D
:1003C000008007FA05FC28EA0C0803FA05F548EA5C
:1003D0000508C6F800804D68ED0066D5394DAE6958
:1003E00046F00106AE61AD69374D24F0030606EB19
:1003F000050CDCF80850A607360F07FA06F825EAC0
:100400000805DFF8C880404503D14FF0000817E029
:100410004BE0DFF8BC80404502D14FF001080FE00F
:10042000DFF8B080404502D14FF0020808E0DFF865
:10043000A880404502D14FF0030801E04FF00408C6
:1004400008FA06F848EA0508CCF808804D68D9F89B
:100450000060ED02002D4D4601DA164300E09643A0
:100460002E604D68DAF80060AD02002D554601DAC5
:10047000164300E096432E604D68AD0305D5DBF8CA
:1004800000501543CBF8005004E0DBF800609643C1
:10049000CBF800604D68DEF80060ED03002D754676
:1004A00001DA164300E096432E60641C0A6832FAB3
:1004B00004F57FF42DAFBDE8F08F00000804014083
:1004C000000011100010024000000140000801402F
:1004D000000C01400010014000140140C26821EAF4
:1004E00002030A4043EA0241016170470AB1016117
:1004F00070470904FBE7000001488068704700006E
:100500003800002070B5040025D094F83D00002587
:1005100020B984F83C50204600F072FA242084F878
:100520003D002068016821F0010101602068016838
:1005300041F4004101602068016821F4004101603C
:1005400000F09EFB4A4A6168914201D8494900E0A7
:100550004949884201D2012070BD48492368B0FB57
:10056000F1F15E6826F03F060E435E6063689342D9
:1005700006D94FF4967359434FF47A73B1FBF3F1F4
:100580002368491C1E6A26F03F06314319626168E0
:1005900091420AD84900401EB0FBF1F0401CC0F364
:1005A0000B0004281ED204201CE0A368F3B301EB67
:1005B000C10202EB0116421EB2FBF6F2521C42F4DB
:1005C0008042120549D093B301EBC10202EB011145
:1005D000401EB0FBF1F0401CC0F30B0040F4804023
:1005E00040F400402168CA694CF6FF739A431043F7
:1005F000C861D4E9071001432068026822F0C002F4
:1006000011430160D4E9030101432068826848F284
:10061000FF339A4311438160D4E9050108432168FF
:10062000CA6822F0FF021043C86001E00EE016E045
:100630002068016841F0010101602564202084F8F0
:100640003D00256384F83E50002070BD01EB41065B
:10065000421EB2FBF6F2521CB3E70120C2E701EBE7
:100660004101401EB0FBF1F0401CC0F30B00B7E7A6
:10067000A086010080841E0000093D0040420F005A
:100680002DE9FF4F83B09A46DDE910799346044681
:10069000DDF84880FFF730FF064694F83D0020283B
:1006A00079D11923012284492046009601F0B4F83B
:1006B0000028F5D194F83C0001286CD0012084F882
:1006C0003C0020680168C90703D1016841F00101BD
:1006D00001602068016821F400610160222084F833
:1006E0003D00402084F83E00002525646762A4F8A0
:1006F0002A90608D20857148E062CDE900865346DE
:100700005A462046049900F08BFF00287ED1208DA8
:10071000DFF8AC91202760B1012812D002282068B0
:1007200001681BD041F480610160206841698069E3
:10073000B6E0206841698169016841F40071016097
:10074000AEE02068016821F48061016072B6206823
:1007500041698169016841F4007109E041F4006177
:10076000016072B6206841698169016821F4806185
:10077000016062B694E0032867D801280CD00228F3
:1007800043464FF000024946204600960FD001F044
:1007900043F8D8BB10E08CE032464146204601F0D9
:1007A000E1F898BB20680069616A08706FE001F0A9
:1007B00033F858BB72B626E02068016821F48061E6
:1007C000016072B620680069616A0870606A00F1B1
:1007D00001006062208DA0F101002085608DA0F1F4
:1007E00001006085374846F2A8110068B0FBF1F0BF
:1007F000C0EBC00000EB8000401E1BD0216849699F
:10080000C9434907F8D42068016800E023E041F4B7
:100810000071016020680069616A0870606A401CAC
:100820006062218D491E2185618D491E618562B6F8
:1008300021682AE044F8305F6773A573206940F0AF
:100840002000206162B6257305E03246414620460D
:1008500001F088F818B1012007B0BDE8F08F2068DA
:100860000069616A0870606A00F101006062218DB0
:10087000A1F101012185618DA1F10101618521684D
:100880004A696FEA020252070AD409690170606A74
:10089000401C6062208D401E2085608D401E60855A
:1008A000208D00287FF467AF3C346770A5702570F9
:1008B000D2E70220D0E70000020010000000FFFF96
:1008C00004000100440000202DE9FF4F83B09A4648
:1008D000DDE9119793460446DDF84080FFF70CFEF2
:1008E000054694F83D0020287ED119230122424973
:1008F0002046009500F090FF00287AD194F83C0043
:10090000012876D0012084F83C0020680168C907DE
:1009100003D1016841F0010101602068016821F400
:1009200000610160212084F83D00402084F83E00F1
:1009300000262664C4F82480A4F82A90608D2085BF
:100940002E48E062CDE9007553465A462046049988
:1009500000F0E4FE70B934E02A463946204601F042
:1009600038F858B1206C042804D12068016841F49B
:1009700000710160012007B0BDE8F08F606A216856
:1009800000780861606A00F101006062218DA1F1C8
:10099000010189B22185628DA2F10102628522687E
:1009A00053696FEA03035B070BD469B100781061E8
:1009B000606A401C6062208D401E2085608D401E54
:1009C0006085208D0028C7D12A463946204600F090
:1009D000F7FE0028C6D154F81F0B016841F40071DE
:1009E00001602020A07700E003E0E6776677002032
:1009F000C1E70220BFE70000020010000000FFFF77
:100A00001FB50021009101910291039100680C49EA
:100A1000884214D10B4CA06940F00800A061A06985
:100A2000C0200090122001900320039069460648E0
:100A3000FFF760FCE06940F40010E061E0691FBD71
:100A40000054004000100240000C01400248816840
:100A5000027811448160704738000020074810B5C3
:100A6000016841F010010160032000F061F80F20DF
:100A700000F006F800F024F8002010BD002002402D
:100A800070B50D4D04464FF47A712878B1FBF0F043
:100A90000A490968B1FBF0F000F095FD48B9102C47
:100AA00007D200222146501E00F022F800206C6080
:100AB00070BD012070BD00003800002044000020FF
:100AC0000948816941F0010181618169C16941F091
:100AD0008051C161C0690548416821F0E06141F081
:100AE00000714160704700000010024000000140AA
:100AF000F0B40E4B1B680D46C3F30223C3F1070687
:100B0000042E00D90426191D072901D2002300E074
:100B1000DB1E012404FA06F1491E294099409C403D
:100B2000641E14402143F0BC01F012B90CED00E04A
:100B3000064900F0070208684FF6FF03184040EA34
:100B40000220034A10430860704700000CED00E0EB
:100B50000000FA052DE9F0470F46050061D0434E2D
:100B6000306800F00700B84209D2306820F0070072
:100B700038433060306800F00700B84251D128682F
:100B80003B4C810712D5400703D5606840F4E06014
:100B900060602878000703D5606840F460506060AA
:100BA0006068A96820F0F000084360602878C007FA
:100BB00028D06868012810D02168022810D0890741
:100BC00000292EDA616821F0030101436160FFF71B
:100BD00093FC804641F288390DE021688903EFE7F4
:100BE0008901EDE7FFF788FCA0EB0801494502D930
:100BF0000320BDE8F0876068696800F00C00B0EB86
:100C0000810FEFD1306800F00700B8420BD930688F
:100C100020F0070038433060306800F00700B84229
:100C200001D00120E5E72878400705D56068E9682C
:100C300020F4E060084360602878000706D560680B
:100C4000296920F4605040EAC100606000F028F893
:100C50006168084AC1F30311515CC8400649086045
:100C600006480068FFF70CFF0020C2E700200240A2
:100C7000001002406A210008440000203C000020CF
:100C80000448054900684968044AC1F30221515CDF
:100C9000C840704744000020001002407A2100083C
:100CA0000E4A51680E4801F00C03042B11D0082B9A
:100CB0000FD10C48C1F38343C903C05C0AD5516806
:100CC000084AC1F34041921E515C054A5043B0FBB3
:100CD000F1F070470449484370470000001002409B
:100CE00000127A005A21000800093D002DE9F05F4A
:100CF000040070D02078BF4DC00749D06868C0F3A9
:100D00008100012807D06868C0F38100022809D15A
:100D10006868C00306D52868800339D56068002854
:100D2000E7D035E06068B0F5803F0BD010B1B0F58A
:100D3000A02F11D0286820F480302860286820F483
:100D4000802002E0286840F480302860606890B11C
:100D5000FFF7D2FB06460AE0286840F480202860AE
:100D6000F0E700BFFFF7C8FB801B642872D8286833
:100D70008003F7D50CE0FFF7BFFB064605E000BF98
:100D8000FFF7BAFB801B6428F0D828688003F7D4EB
:100D90002078994E80074FF001094FF0000839D5AF
:100DA000686810F00C0F07D06868C0F38100022853
:100DB00009D16868C00306D42868800714D5206963
:100DC000012808D110E02069B0B1C6F80090FFF703
:100DD00093FB074605E008E1FFF78EFBC01B0228E6
:100DE000C4D828688007F7D52868616920F0F80022
:100DF00040EAC10028600DE0C6F80080FFF77CFBE8
:100E0000074604E0FFF778FBC01B0228AED828682D
:100E10008007F7D4207800072CD57848A169D1B194
:100E2000C0F80090FFF768FB074604E0FFF764FB9B
:100E3000C01B02280ED8686A8007F7D570484FF4A7
:100E4000FA510068B0FBF1F000BF0100A0F1010011
:100E5000FAD10FE07EE0C0F80080FFF74DFB0746B7
:100E600005E000BFFFF748FBC01B022872D8686A84
:100E70008007F7D4207840075DD5E8690027C000D7
:100E800005D4E86940F08050E861E86901275D48D1
:100E90000168C90512D40168834641F4807101607C
:100EA000FFF72AFB824605E0FFF726FBA0EB0A00CE
:100EB00064284FD8DBF80000C005F5D5E0680128AC
:100EC0000AD008B1052813D0286A20F00100286252
:100ED000286A20F0040002E0286A40F0010028623D
:100EE000E06841F2883B98B1FFF706FB82460BE0D1
:100EF000286A40F004002862EEE700BFFFF7FCFA22
:100F0000A0EB0A0159455CD8286A8007F6D50CE0A9
:100F1000FFF7F2FA824605E0FFF7EEFAA0EB0A01CE
:100F200059454ED8286A8007F6D4012F03D1E869C5
:100F300020F08050E861E06990B36968C1F38101F5
:100F4000022945D00228C6F8608004D0FFF7D4FA01
:100F5000044639E035E0FFF7CFFA074605E000BF69
:100F6000FFF7CAFAC01B02282BD828688001F7D4E3
:100F7000206AB0F5803F05D16868A16820F4003090
:100F800008436860D4E908010843696821F47411D2
:100F900008436860C6F86090FFF7AEFA044606E0C2
:100FA00025E000BFFFF7A8FA001B022809D828682F
:100FB0008001F7D51BE000BFFFF79EFA001B022857
:100FC00002D90320BDE8F09F28688001F4D40EE028
:100FD0000128F7D06868226A00F48031914204D178
:100FE000616A00F47010884201D00120EAE7002015
:100FF000E8E7000000100240000042428004424244
:10100000440000200070004070B5040009D0606A00
:10101000002540B125616561A56294F8510040B199
:101020000CE0012070BD6068B0F5827FF4D0E5610E
:10103000F2E784F85050204600F040F8022084F88F
:1010400051002068016821F040010160A0882189D9
:1010500000F4827001F404410843A18901F40061A5
:101060000843217C01F002010843217D01F00101C8
:101070000843218B01F400710843217F01F03801FE
:10108000084394F8201001F080010843218D01F4F9
:101090000051084321680860A069042101EA10405A
:1010A000216848602068C16921F40061C1616565FB
:1010B000012084F85100002070BD00007FB500249D
:1010C00000940194029403940068114988421DD150
:1010D0001048816941F4805181618169816941F0E1
:1010E000040181618069A02000900220019003200A
:1010F000094D039069462846FFF7FCF84020CDE9EA
:101100000004694628460294FFF7F4F87FBD00000A
:101110000030014000100240000801402DE9F84F66
:10112000044690F8510090461D460F4600260128BF
:1011300001D0022693E060684FF0040BB0F5827F87
:1011400001D1A06810B394F85000012828D04FF0C6
:10115000010984F85090FFF7CFF98246002F7AD02A
:10116000B8F1000F77D084F851B000206065A76314
:10117000A4F83C80A4F83E802063A086E08620642A
:101180006064A068B0F5004F0CD015E084F851B051
:10119000009313460A46204600F01CF9BDE8F88F7C
:1011A0000220FBE72068016821F04001016020680F
:1011B000016821F48041016020680168490603D478
:1011C000016841F040010160E068C0B136E020688C
:1011D0008168C90709D0007BA16B0870A06B401C17
:1011E000A063E08F401EE08709E0FFF785F9A0EBE0
:1011F0000A00A84202D3681C01D004E01DB1E08FB0
:101200000028E4D11DE0032627E020688168C90793
:1012100009D0C068A16B0880A06B801CA063E08F20
:10122000401EE0870AE0FFF767F9A0EB0A00A8423A
:1012300002D3681C02D0E6E7002DE4D0E08F00283E
:10124000E3D152462946204600F0B1FC08B12020E7
:101250006065606D08B1012601E084F851900020BE
:1012600084F85000304699E72DE9F05F044690F885
:1012700050000026154698468A4601280CD00127C2
:1012800084F85070FFF738F9814694F85100B3465E
:10129000012804D0022699E00220BDE8F09FBAF1AF
:1012A000000F6FD0002D6DD0032084F85100C4F8DA
:1012B00054B0C4F830A0A586E586C4F838B0A4F8C8
:1012C0003CB0A4F83EB0C4F844B0C4F840B0A06844
:1012D000B0F5004F09D12068016821F0400101609C
:1012E0002068016841F48041016020680168490676
:1012F00003D4016841F040010160E068B0F5006F7F
:10130000606803D058B3012D29D049E008B1012D00
:101310001FD1206B21680088C86006E020688168C2
:10132000890709D5216B0988C160206B801C206367
:10133000E08E401EE0860CE0FFF7DEF8A0EB09012E
:10134000414503D318F1010003D006E0B8F1000FC6
:1013500003D0E08E0028E1D125E0032634E0206BA5
:1013600021680078087306E02068816889070AD53B
:10137000216B09780173206B401C2063E08E401EB6
:10138000E0860DE01EE0FFF7B7F8A0EB090141454C
:1013900003D318F1010003D0DFE7B8F1000FDCD070
:1013A000E08E0028E0D14A464146204600F02DFC60
:1013B00008B120206065A06810B92068C168806805
:1013C000606D08B1012601E084F8517084F850B0D6
:1013D000304662E72DE9FF5F044690F85000002692
:1013E0000E9F1D4693464FF0010901280FD04FF084
:1013F000010A84F850A0FFF77FF8804694F8510066
:10140000616801280DD0B1F5827F08D103E0022088
:1014100004B0BDE8F09FA16809B9042801D00226F4
:10142000CCE00198002870D0BBF1000FFBD0002D5C
:10143000F9D094F85100042802D0052084F8510016
:1014400000206065C4F838B0E587A587019921635D
:10145000E586A5862064606420680168490603D497
:10146000016841F040010160E068B0F5006F60681C
:1014700003D0E8B3012D49D085E008B1012D3DD15D
:10148000206B21680088C860206B00F10200206397
:10149000E08EA0F10100E08630E0206881688907D5
:1014A0000FD5E18E69B1B9F1010F0AD1216B09881D
:1014B000C160206B801C2063E08E401EE0864FF0F0
:1014C000000920688168C9070CD0E18F51B1C0685C
:1014D000A16B0880A06B801CA063E08F401EE0879A
:1014E0004FF00109FFF708F8A0EB0800B84200E050
:1014F0000CE003D3781C01D003265DE0E08E0028C9
:10150000CBD1E08F0028C8D143E053E0206B2168A5
:1015100000780873206B00F101002063E08EA0F1D9
:101520000100E0862FE02068816889070FD5E18EF1
:1015300069B1B9F1010F0AD1216B09780173206BF0
:10154000401C2063E08E401EE0864FF000092068BA
:101550008168C9070CD0E18F51B1C068A16B0870D8
:10156000A06B401CA063E08F401EE0874FF0010994
:10157000FEF7C2FFA0EB0800B84202D3781C02D0ED
:10158000BAE7002FB8D0E08E0028CCD1E08F002839
:10159000C9D142463946204600F037FB18B1012632
:1015A000202060650AE0A06810B92068C1688068E2
:1015B000606D08B1012601E084F851A0002084F894
:1015C0005000304624E710B5401EB0F1807F01D3B3
:1015D000012010BD4FF0E02460610F21601700F082
:1015E000B7FB0020A06107202061002010BDFEE7AE
:1015F00001684A69D24352050FD46FF480624A6190
:10160000002140F8301F202242738173026942F0AA
:10161000040202610173012070470020704700003E
:101620002DE9F84F044600680F460B9E01681546E9
:10163000994641F4806101602068016841F480713D
:10164000016000964FF0011A0022514620460A9B85
:1016500000F0E2F84FF4007840B120680068C0055F
:1016600001D5C4F840800320BDE8F88F216807F059
:10167000FE000861DFF8A0B03346594620460A9ABA
:1016800000F012F9F0BB20684169806932462046BB
:101690000A9900F09EF940B1206C042839D12068E5
:1016A000016841F40071016033E0B9F1010F09D024
:1016B0002168280A0861324620460A9900F089F913
:1016C0000028E9D12168E8B20861324620460A992B
:1016D00000F07FF90028DFD12068016841F48071B3
:1016E000016000960022514620460A9B00F094F8C3
:1016F0000028B2D12168F8B240F0010008613346F9
:10170000594600E005E020460A9A00F0CDF800288E
:10171000AAD00120A8E70000020001002DE9F8434B
:10172000044600680F46DDE90896016815469846AC
:1017300041F4807101604B4600224FF001112046B8
:10174000009600F069F848B120680068C00502D52D
:101750004FF4007020640320BDE8F883216807F08F
:10176000FE00086133464A461449204600F09CF8C2
:1017700080B920684169806932464946204600F0B8
:1017800028F948B1206C042804D12068016841F48C
:10179000007101600120DFE7B8F1010F09D0216875
:1017A000280A086132464946204600F012F900280E
:1017B000E8D12168E8B208610020CDE7020001000D
:1017C00070B516460D4604461EE02046FFF710FF92
:1017D00008B1012070BD681C16D0FEF78DFE801B7D
:1017E000A84200D885B920684069C04340070BD59E
:1017F000002044F8300F20216173A073216941F06B
:10180000200121612073E4E720684069C04340075C
:10181000DBD4002070BD00002DE9F0471746984644
:101820000D460446C1F30746DDF820902AE000BFCC
:1018300018F1010026D0FEF75FFEA0EB090141453B
:1018400002D8B8F1000F1DD12068012E16D0806992
:1018500025EA00000004000C12D00020B84211D18B
:10186000002044F8300F20216173A073216941F0FA
:101870002001216120730120BDE8F0874069E7E77E
:101880000120EBE72068012E0AD0806925EA0000DC
:101890000004000C06D00020B842C9D00020EBE7BD
:1018A0004069F3E70120F7E72DE9F047984616462F
:1018B0000D4604464FF000094FF0200AC1F30747D8
:1018C00023E020684069C043400515D420680168C2
:1018D00041F40071016021686FF480604861C4F8D0
:1018E000309084F83DA084F83E90216C41F00401D2
:1018F000216484F83C9021E0701C06D0FEF7FCFDCA
:10190000A0EB0800B04203D816B1012F1FD021E090
:101910002068012F15D0806925EA00000004000C22
:1019200018D000BF44F8309F84F80DA084F80E90C2
:10193000216941F02001216184F80C900120BDE86B
:10194000F087406925EA00000004000CEAD1206815
:10195000406901E02068806925EA00000004000C6D
:10196000AFD1ECE72DE9F041002590460E46044644
:10197000202727E04069C043C0060BD454F8201B41
:101980006FF01000486125616777A577206A2062B3
:10199000257714E0FEF7B0FDA0EB0800B04200D8B8
:1019A00086B920684069C04340060BD544F8305FD3
:1019B0006773A573206940F0200020612573012022
:1019C000BDE8F08120684169C9434906D2D40020AE
:1019D000F6E770B516460D4604461EE02046FFF7B2
:1019E00007FE08B1012070BD681C16D0FEF784FD0B
:1019F000801BA84200D885B920684069C043000612
:101A00000BD5002044F8300F20216173A0732169A9
:101A100041F0200121612073E4E720684069C04360
:101A20000006DBD4002070BDF0B585B0012504A808
:101A3000CDE900054FF47A742B467522D02102942B
:101A40001B48FEF71DFE9DF8100068282ED10027C8
:101A500003AE8DF80C700096CDE9015401236B2282
:101A6000D0211348FEF730FF07208DF80C000096B8
:101A7000CDE9015401231922D0210D48FEF724FF9E
:101A80008DF80C700096CDE9015401231C22D02161
:101A90000748FEF719FF8DF80C700096CDE9015448
:101AA00001231B22D0210248FEF70EFF05B0F0BD36
:101AB000480000202DE9FF470024264800940194A7
:101AC00002940394816941F0100181618169816907
:101AD00041F0200181618169816941F004018161E6
:101AE0008169816941F0080181618069DFF868805E
:101AF0004FF40057002239464046FEF7F7FCDFF866
:101B00005C90002206214846FEF7F0FCDFF850A06A
:101B1000002239465046FEF7E9FC022601250097CF
:101B20000396CDE9015469464046FEF7E3FB0620E3
:101B3000CDE90005CDE9024669464846FEF7DAFBE5
:101B400000970396CDE9015469465046FEF7D2FB53
:101B5000BDE8FF870010024000100140000801406E
:101B6000000C01400F4810B50D4901604FF482711F
:101B7000416000218160C1604FF400720161C0E9E1
:101B800005121822C0E90721416281620A21C1625F
:101B9000FFF73AFA002801D072B6FEE710BD000048
:101BA000003001409C000020FEE7FEE77047F8B5DA
:101BB000044640684FF48273984217D1A0684FF4EE
:101BC0008065B0F5004F01D0A8420FD120680668AB
:101BD00026F0400606606068984207D1A068A842D7
:101BE00004D100920B460022012103E000920B4633
:101BF00000228021204600F019F8002804D0606DF2
:101C000040F0200060650320F8BD38B50B46009217
:101C100004460022802100F009F8002804D0606DFD
:101C200040F020006065032038BD00002DE9F0473A
:101C30001E46914688460446089DFEF75DFC401B03
:101C4000351AFEF759FC074626480068C0F3CB302A
:101C5000684339E0701C38D0FEF74EFCC01BA84228
:101C600004D21DB1BAF1000F2BD02BE020684168DF
:101C700021F0E00141606068B0F5827F0BD1A0687F
:101C8000B0F5004F02D0B0F5806F04D12068016834
:101C900021F040010160A06AB0F5005F09D1206821
:101CA000016821F4005101602068016841F400518D
:101CB0000160012050346070002020700320BDE8D6
:101CC000F0870025AAF1010082462068816838EA81
:101CD000010004D000214945BCD10020EFE70121DB
:101CE000F9E70000440000207047FEF7AFBE30B5B2
:101CF0008FB028216846FEF767FA14210AA8FEF77C
:101D000063FA01210804CDE90010002402940225A1
:101D10000491CDE907504FF4E01009906846FEF7B2
:101D2000E5FF08B172B6FEE70F20CDE90A054FF4D2
:101D30008060CDE90C4002210AA80E94FEF70AFF4C
:101D4000002801D072B6FEE70FB030BD7047FEE745
:101D50000907090E002801DB034A02E0034A00F0EC
:101D60000F0081547047000000E400E014ED00E033
:101D70000EB5FEF773FEFFF7BAFFFFF79BFE3B4879
:101D800039494FF480420160394941600021816046
:101D9000C0E9031241618161C1610162FEF7B2FBDA
:101DA00008B172B6FEE7FFF7DDFE4FF496742046E9
:101DB000FEF78EFAFFF738FE2046FEF789FA00F0AC
:101DC0005DF80A212B4800F0E1F82046FEF780FA82
:101DD000284CDFF89890641DDFF89CB04FF006089F
:101DE000A71D09F1AC094FF47A754FF4005A00268B
:101DF000CDE9004801233B22D0211C480295FEF783
:101E00003FFC0097CDE9018501233B22D0211748F3
:101E1000FEF736FC00204946225C0A54401C062886
:101E2000FADB06203A1812F8062C0A54401C0C283B
:101E3000F8DB1048113000F077F840B951465846A9
:101E4000FEF74CFB0B48001F0168491C0160761C23
:101E5000AE42CDDB002251465846FEF747FB42F228
:101E60001070FEF735FAC2E7005400404800002029
:101E7000A0860100040000200010014010B5FEF70C
:101E800005FA002000F0D2F8172000F023F8002116
:101E9000084600F099F80021012000F095F8002193
:101EA000022000F091F80321084600F08DF800218F
:101EB000042000F089F80021052000F085F80E21AB
:101EC000062000F081F8002000F004F8BDE8104082
:101ED000FEF7E4B901B582B000208DF80000FEF7EE
:101EE000E5F96423012202A90748FFF7BDF94FF481
:101EF0007A73012269460448FFF710F9FEF7DEF90C
:101F00009DF800000EBD00009C00002001B5FEF70A
:101F1000CDF96423012269460248FFF7A5F9FEF7CF
:101F2000CDF908BD9C00002038B5044600208DF88E
:101F30000000FEF7BBF9A0208DF800006423012209
:101F400069461148FFF790F94FF47A732022214631
:101F50000D48FFF789F9FEF7B1F90120FEF7B8F94E
:101F60001720FFF7B7FFC1060BD5000709D4E12002
:101F70008DF80000FFF7CAFF172000F057F8012086
:101F800038BD002038BD00009C00002070B50D4613
:101F90000446FEF77BF91720FFF79CFF2946052032
:101FA00000F012F805222146102000F023F800204E
:101FB000FFF790FF40F00201002000F005F8BDE8B7
:101FC0007040FEF76BB9000008B540F020008DF8B6
:101FD00000008DF80110FEF769F94FF47A730222C0
:101FE00069460348FFF740F9FEF768F908BD0000AD
:101FF0009C00002038B540F0200014460D468DF8B6
:102000000000FEF753F96423012269460648FFF7F2
:102010002BF9A2B24FF47A7329460348FFF724F94B
:10202000FEF74CF938BD00009C00002000B587B0D9
:1020300007287FD017287CD008210020FFF7C4FF95
:102040003F210120FFF7C0FF03210220FFF7BCFF63
:1020500003210846FFF7B8FF03210420FFF7B4FF70
:1020600002210520FFF7B0FF0E210620FFF7ACFF8D
:1020700000210720FFF7A8FF00210820FFF7A4FF99
:1020800000210920FFF7A0FF2FA00522D0E90010B2
:10209000CDE9001069460A20FFF7ACFF2CA005220D
:1020A000D0E90010CDE9021002A90B20FFF7A2FF32
:1020B000C3210C20FFF788FFC4210D20FFF784FF08
:1020C000C5210E20FFF780FFC6210F20FFF77CFF00
:1020D0001DA00522D0E90010CDE9041004A91020AC
:1020E000FFF788FF00211120FFF76EFF002112206B
:1020F000FFF76AFF00211320FFF766FF002114207D
:10210000FFF762FF00211520FFF75EFF0021162078
:10211000FFF75AFF11211720FFF756FF00211C205F
:10212000FFF752FF00211D20FFF74EFF07B000BD53
:1021300000E002E00021072001E01121172007B094
:102140005DF804EBFFF740BFE7E7E7E7E7000000D3
:10215000C2C2C2C2C2000000010202030405060797
:1021600008090A0B0C0D0E0F1010000000000000F3
:102170000000010203040607080900000000010234
:1021800003040000A4210008000000204800000013
:1021900028010008EC21000848000020300700005A
:1021A0004401000800000000EEDDCCBBAA000000E6
:1021B0000000000000000000004920646F6E7420E1
:1021C0006B6E6F77206569746865720000000000AF
:1021D00000000000000000000000000001000000FE
:0C21E00010000000000000000024F400CB
:04000005080000ED02
:00000001FF
